:020000040800F2
:1000000068060020DD010008332A0008B523000837
:10001000312A0008890A0008B32D000800000000FA
:10002000000000000000000000000000372A000867
:100030000D0C000800000000352A0008392A0008CD
:10004000F7010008F7010008F7010008F7010008B0
:10005000F7010008F7010008F7010008F7010008A0
:10006000F7010008F7010008F7010008F701000890
:10007000F7010008F7010008F7010008F701000880
:10008000F7010008F701000855090008F70100080A
:10009000F7010008F7010008F7010008F701000860
:1000A000F7010008F7010008F7010008F701000850
:1000B000F7010008F7010008F7010008F701000840
:1000C000F7010008F7010008F7010008F701000830
:1000D000F7010008F7010008F7010008F701000820
:1000E000F7010008F7010008F7010008F701000810
:1000F000F7010008F7010008F7010008F701000800
:10010000F7010008F7010008F7010008F7010008EF
:10011000F7010008F7010008F7010008F7010008DF
:10012000F7010008F7010008F7010008F7010008CF
:10013000F70100080000000000000000F7010008BF
:10014000F7010008F7010008F7010008F7010008AF
:10015000F7010008F7010008F7010008F70100089F
:10016000F7010008F7010008F7010008F70100088F
:10017000F7010008F7010008F7010008000000007F
:1001800000000000F701000800000000000000006F
:10019000F70100080000000000000000F70100085F
:1001A000000000000000000000000000F70100084F
:1001B000F7010008F7010008F7010008F70100083F
:1001C000F7010008DFF810D000F060FB004800479E
:1001D000A53E0008AFF3008068060020064880476F
:1001E00006480047FEE7FEE7FEE7FEE7FEE7FEE71C
:1001F000FEE7FEE7FEE7FEE7D12A0008C50100089A
:100200002DE9F05F0546002092469B46884606464B
:10021000814640241BE0284641464746224600F0DE
:10022000A6F953465A46C01A914110D311461846B2
:10023000224600F08DF92D1A67EB01084F46224641
:100240000120002100F084F917EB00094E41201E27
:10025000A4F10104DFDC484631462A464346BDE8A6
:10026000F09FD2B201E000F8012B491EFBD270478B
:100270000022F6E710B513460A4604461946FFF772
:10028000F0FF204610BD2DE9FE4F804681EA0300B5
:10029000C00F0C46009021F0004123F00045B8EB60
:1002A0000200A94105D24046214690461C460B4615
:1002B000024623F00040104347D0270DC7F30A0041
:1002C000C3F30A510290401A019040286BDAC3F33D
:1002D000130040F4801B0098924620B10023D2EB1B
:1002E000030A63EB0B0B01985946C0F140025046DC
:1002F00000F02EF906460D4650465946019A00F088
:1003000046F910EB08006141002487EA115284EAA3
:10031000E7731A4340D0009A62B3019A012A4FEA68
:10032000075215DC001B61EB02014FF0004202EAAC
:100330000752CDE90042001C41F5801132462B46A0
:1003400000F046F903B0BDE8F08F40462146F9E7DA
:10035000001B61EB0201001C41F5801300185B419A
:100360002018A2F5001747EB030140EAD570B61933
:100370006D4111E06D084FEA360645EAC0754FEA57
:100380000752001B61EB0201001C41F58011490876
:100390004FEA30000019514132462B4603B0BDE808
:1003A000F04F00F006B90098012240000023D0EB86
:1003B000020263EBE073009821464FEAE074B8EB69
:1003C000000061EB0401E9E783F000435BE781F0A3
:1003D000004158E72DE9F04D81EA030404F0004B99
:1003E00021F0004514464FF0000A23F0004150EA86
:1003F000050220D054EA01021DD0C5F30A57024677
:10040000C5F31303C1F31300C1F30A5640F480157A
:1004100043F48013A7EB0608101BD64608F2FD38FC
:1004200073EB050002D308F1010801E092185B416B
:10043000B8F1000F03DA00200146BDE8F08D00207E
:100440004FF48011064684460EE0171B73EB050738
:1004500005D3121B63EB050306434CEA010C490864
:100460004FEA300092185B4150EA0107EDD152EAA1
:10047000030012D082EA040083EA0501084305D094
:10048000101BAB4106D20122002306E000224FF0F0
:10049000004302E06FF0010253101AEB06004CEB30
:1004A000085110EB0A0041EB0B01BDE8F04D00F0E4
:1004B00080B80EB540F2334102910021CDE9001120
:1004C0000A460B4600F084F803B000BDC1F30A529F
:1004D00010B5C1F3130140F2FF3341F480119A4289
:1004E00001DA002010BD40F233439A42A2F23342B7
:1004F00003DC524200F03BF810BD904010BD00F00C
:10050000004230F000400AD0C10D01F56071C0F327
:10051000160042EA0151C20840071143704700200B
:100520000146704730B50B460146002020220124C9
:1005300009E021FA02F59D4205D303FA02F5491BB1
:1005400004FA02F52844151EA2F10102F1DC30BDC7
:10055000202A04DB203A00FA02F100207047914083
:10056000C2F1200320FA03F3194390407047202A78
:1005700004DB203A21FA02F00021704721FA02F34D
:10058000D040C2F120029140084319467047202A0A
:1005900006DBCB17203A41FA02F043EAE07306E0AB
:1005A00041FA02F3D040C2F12002914008431946BB
:1005B000704710B5141E73F1000408DA401C41F1B5
:1005C000000192185B411A4301D120F0010010BDD7
:1005D0002DE9F04D92469B4611B1B1FA81F202E04D
:1005E000B0FA80F220329046FFF7B2FF04460F4681
:1005F00040EA0A0041EA0B0153465A46084313D029
:10060000114653EA010019D0C8F140025046FFF7E5
:10061000AEFF05460E46504659464246FFF798FF44
:10062000084305D0012004E020463946BDE8F08D9E
:100630000020054346EAE0762C4337430A986305D9
:10064000E40AA0EB08000022FD0A44EA47540A30FD
:1006500002D500200146E9E7010510196941DDE9ED
:10066000084500196941BDE8F04DA2E72DE9FE4FAC
:1006700081EA030404F0004421F0004100944FF0AB
:10068000000B23F0004350EA01045ED052EA030459
:100690005BD0C3F30A54C1F30A552C44A4F2F334DB
:1006A0000194A0FB0254C1F3130141F48011C3F380
:1006B000130343F4801301FB024400FB034E840A3E
:1006C000970A44EA815447EA8357A4FB07680295D6
:1006D0008D0A05FB07854FEA932C04FB0C54270574
:1006E000029D4FEA065847EA1637B5EB08056EEB50
:1006F000070C870E920E47EA811742EA8312A7FB86
:100700000201B6EB0B0164EB00042B0D43EA0C3342
:100710005E1844EB1C50DA465146E7FB0201C5F374
:1007200013044FEA0B3343EA14534FEA0432019C9B
:1007300043EA0603A4F10C040294009CCDE900B442
:10074000FFF746FF03B0BDE8F08F00200146F9E750
:1007500070B521F0004303430CD0C1F30A550024C7
:10076000D5EB040564EB0403D617AD1AB34102DBE5
:100770000020014670BD201841EB025170BD000001
:100780002DE9F041054621F000400C46284309D0F0
:10079000C4F30A5040F23341884205DD2846214621
:1007A000BDE8F0812846FBE740F2FE31884210DCCC
:1007B0000CDB4FEA043040EA155050EA053105D011
:1007C000104804F0004101430020E9E70020014601
:1007D000E6E7A0F233404642C6F1400228462146F1
:1007E000FFF7B6FE07468846284621463246FFF701
:1007F000BEFE43463A46FFF7DCFE3246BDE8F04116
:10080000FFF7A6BE0000F03F0EB5C10F80EAE07012
:100810000844CA07002140F233438DE80E000A461F
:100820000B46FFF7D5FE03B000BD000030B5041E37
:1008300071F1000404DB4FF00044404264EB01011D
:10084000141E73F1000405DB1C464FF000435242B6
:1008500063EB04038B4208BF824230BD30B5041EF7
:1008600071F1000404DB4FF00044404264EB0101ED
:10087000141E73F1000405DB1C464FF00043524286
:1008800063EB0403994208BF904230BD064C074D0C
:1008900006E0E06840F0010394E807009847103450
:1008A000AC42F6D3FFF792FCF04300081044000876
:1008B0002DE9F04D00231A461B1A8A4103DB002064
:1008C0000146BDE8F08DC1F30A52C1F3130141F4B2
:1008D00080154FF0000BD10702D100186D41521E58
:1008E0000027044640F2FF11384601EB620A3E46FB
:1008F0008046024600204FF48011FFF738FEC219EF
:100900007141BB1846EB0100B4EB030C75EB000C16
:1009100004D3E41A65EB000517460E46241908F1C6
:1009200001006D4180463428E3DDF91946EB0600ED
:10093000091BA84103D24FF0FF32134601E0002209
:1009400013461BEB070046EB0A51BDE8F04DFFF7DD
:1009500030BE0000014800F02BBA00004C0000201F
:10096000464910B54A6822F440324A604A684368F2
:100970001A434A6001684A6822F480724A6001683A
:100980004A68036942EA03224A6001684A6822F021
:1009900040724A6001684A6883681A434A60016885
:1009A0008A6822F400628A6001688A68C3681A4310
:1009B0008A60816A6FF07062D14201688A6822F0B1
:1009C00070628A6001688A680CD0836A1A438A6000
:1009D00001688A6822F040528A6001688A68C36AA6
:1009E0001A4301E022F040528A6001688A6822F0CE
:1009F00002028A6001688A68037E42EA43028A60D2
:100A000090F82010002901684A680FD042F4006273
:100A10004A6001684A6822F460424A6001684A6894
:100A2000174C436A04EB43331A4301E022F400629B
:100A30004A600168CA6A22F47002CA620168CA6A1E
:100A4000838B104C04EB03531A43CA6201688A6813
:100A500022F400728A6001688A6890F8303042EAB5
:100A600043228A6001688A6822F480628A60016891
:100A70008A68406942EA8020886010BD00230140F6
:100A800000E0FFFF0000F0FFFEE710B500220121AB
:100A900000F087F8BDE81040052000F035BB10B528
:100AA00004460298216022716371A0712820A0720F
:100AB0000620E0710C202072142060720820E07281
:100AC000322000F021FB00223321204600F069F89B
:100AD00000223321204600F064F8052000F014FBCA
:100AE00000223221204600F05CF8052000F00CFBCB
:100AF00000222021204600F054F8052000F004FBDD
:100B0000E1790022204600F04CF8217A00222046AC
:100B100000F047F8617A0022204600F042F8A17AFE
:100B20000022204600F03DF800220121204600F07E
:100B300038F820460022BDE81040022100F031B80C
:100B400030B4447900238C4201D8641EE1B2847928
:100B5000944201D8641EE2B232B1012A06D0022AC0
:100B600006D0032A06D007E00B4605E0403102E03C
:100B7000143100E05431CBB230BC43F0800100228C
:100B800000F00FB8012200F00CB870B50C46054615
:100B900003E02846641CFFF7F5FF21780029F8D10F
:100BA00070BD7CB506460807040EF07A01F0F0052A
:100BB00018B145F0080544F00804012A01D02AB113
:100BC00008E045F0010544F0010403E025F00105CB
:100BD00024F0010445F004008DF80400012000F029
:100BE00093FA8DF8055044F004008DF806000120BA
:100BF00000F08AFA4FF47A708DF80740009031794E
:100C0000042301AA306800F04FFC7CBD7047704798
:100C100078B50024009490F83C20012A19D00122D4
:100C200080F83C200A6807230568092A13D9EE6872
:100C30000A3A02EB420293409E43EE600B788A68C8
:100C40000A3B03EB43039A400368DD682A43DA60FA
:100C500010E0022078BD2E6902EB420293409E43D1
:100C60002E610B788A6803EB43039A4003681D6981
:100C70002A431A614A681F23072A13D205686E6B3C
:100C8000521E02EB820293409E436E630A8893B227
:100C90000A79521E02EB820293400268556B2B4385
:100CA000536327E005680D2A12D22E6BD21F02EB88
:100CB000820293409E432E630B790A88DB1F92B217
:100CC00003EB83039A4003681D6B2A431A6311E008
:100CD000EE6A0D3A02EB820293409E43EE620B797C
:100CE0000A880D3B92B203EB83039A400368DD6AE6
:100CF0002A43DA621B4B0568194A9D420AD10D68E6
:100D0000122D07D1556825F400055560556845F446
:100D10008005556005689D421DD1134D0B68AB429F
:100D200001D0112B17D1536823F48003536053680B
:100D300043F4000353600968A9420CD10B490C4AE3
:100D40000968B1FBF2F101EB8101490000E0491EA5
:100D500000910029FBD180F83C40002078BD0000C4
:100D60000023014000200140120000104400002038
:100D700040420F0010B50A490068096888420ED148
:100D8000084CA079401CA071054800F00EF8A1693C
:100D90000844A061BDE81040014800F091B910BDC1
:100DA0004C0000200000002070470068C06C7047B5
:100DB00070B50446006801684268C1F34001C2F39F
:100DC000401251B34AB3216CC90603D4216C41F4DB
:100DD00000712164816811F0405F17D1217EA9B9AB
:100DE000C16A11F4700F02D0816849050ED44168C0
:100DF00021F020014160206C20F480702064206C80
:100E0000C00403D4206C40F0010020642046FFF7AA
:100E1000B1FF21686FF01200086020680168426825
:100E2000C1F38001C2F3C01289B382B3216CC90639
:100E300003D4216C41F400512164816811F4401FF6
:100E40001ED1816B11F4401F02D08168490517D46F
:100E50004168490514D4816811F0405F10D1217EAA
:100E600071B9416821F080014160206C20F480500C
:100E70002064206CC00503D4206C40F00100206485
:100E80002046FFF7C4FE21686FF00C000860206860
:100E90000168426811F0010FC2F380120ED06AB1EE
:100EA0000068C0070AD0206C40F4803020642046DF
:100EB00000F046F821686FF00100086020680168C2
:100EC0004268C1F34011C2F3806200290DD0002AAC
:100ED0000BD0616C41F0020161646FF02005056088
:100EE0002046FFF761FF2068056070BD70B5040003
:100EF0004FF0000503D0206C002610B107E0012060
:100F000070BD204600F01EF8666484F83C60206CDA
:100F1000C00610D4206C20F4885040F002002064F9
:100F20002046FFF71DFD6664206C20F0020040F0B3
:100F30000100206400E0012584F83C60284670BD73
:100F40007047000010B586B0044614216846FFF7CC
:100F50008FF915492068884224D11448002102687D
:100F600042F480720260006800F4807005900F48BF
:100F70001438026842F001020260006800F00100CB
:100F80000590202000900320CDE901016946084822
:100F900000F0CCF800220121122000F0B9FB122051
:100FA00000F0A8FB06B010BD00200140443802400C
:100FB0000000024018B50021009190F83C20012A61
:100FC00007D0012280F83C2002689368DB0702D03A
:100FD00011E0022018BD936843F001039360314A89
:100FE000314B1268B2FBF3F202EB420200E0521EF8
:100FF0000092002AFBD102689368DB0747D0036C9C
:1010000040F20164A34343F48073036453685B05B7
:1010100005D5036C23F4005343F480530364036C3D
:10102000DB0404D5436C23F00603436400E0416411
:1010300080F83C101D4B6FF02201116001684A6876
:101040001B4C22434A6059680068CA06194906D0F9
:10105000884224D1816811F0405F13D01FE088429C
:10106000F8D0154A904203D1D1F80423D206F1D02A
:10107000124A904213D1D1F8041301F01F01102934
:10108000E8D30CE0816841F08041816007E0016CA9
:1010900041F010010164416C41F001014164002004
:1010A00018BD00004400002040420F000023014012
:1010B00020000004002001400021014000220140E6
:1010C00090F83C1001290CD0012180F83C100168F7
:1010D0008A6822F001028A6001688A68D20702D019
:1010E0000BE0022070474A68064B1A404A60016CC8
:1010F00021F4885141F001010164002180F83C1085
:1011000008467047DFFFFFFB70B5044600F002F9A8
:101110000546601C02D004480078044400F0FAF848
:10112000401BA042FAD370BD380000202DE9F84FD3
:10113000DFF8ACA1002201240AF1040B03254FF0D3
:101140000F090BF1040E00BF0B6804FA02F63340DE
:10115000B3426ED10F7907F00307012F01D0022FA0
:1011600016D187684FEA420805FA08FC27EA0C07FF
:10117000D1F80CC00CFA08FC4CEA070CC0F808C007
:101180004768B7430E79C6F3001696403E43466063
:101190000E79F643B6070AD0C6684FEA420C05FA44
:1011A0000CF7BE438F6807FA0CF73743C7600E7918
:1011B00006F00306022E10D1D60800EB8608D8F8F8
:1011C000206057074FEAD76C09FA0CF7BE430F6946
:1011D00007FA0CF73743C8F8207006684FEA420C4C
:1011E00005FA0CF7BE430F7907F0030707FA0CF76F
:1011F000374307604E6816F4403F6BD0394E37686E
:1012000047F480473760366822F0030706F48046CB
:101210000096354E07EB060CDCF8086897074FEA96
:10122000177809FA08F7BE43304FB84202D10027B9
:101230001FE04FE02E4FB84201D1012719E02D4F9A
:10124000B84201D1022714E02B4FB84201D1032745
:101250000FE02A4FB84201D104270AE0284FB842D4
:1012600001D1052705E0274FB84201D1062700E04C
:10127000072707FA08F73743CCF80878DAF8006050
:101280005746D1F804C09E435FEACC3C00D51E43CC
:101290003E60DBF800605F46D1F804C09E435FEA21
:1012A0008C3C00D51E433E60DEF800607746D1F8E6
:1012B00004C09E435FEACC2C00D51E433E60084F1D
:1012C0000C373E68D1F804C09E435FEA8C2C00D5F1
:1012D0001E433E60521C102AFFF436AFBDE8F88F63
:1012E000003C014044380240003001400000024010
:1012F0000004024000080240000C024000100240BE
:1013000000140240001802400069084000D001208B
:1013100070470000014880687047000038000020D6
:1013200070B5040025D094F83D00002520B984F85C
:101330003C50204600F04EF9242084F83D002068FF
:10134000016821F0010101602068016841F4004159
:1013500001602068016821F40041016000F0A4FAF6
:101360004D4A6168914201D84C4900E04C4988429D
:1013700001D2012070BD4B492368B0FBF1F15E68DA
:1013800026F03F060E435E606368934206D94FF431
:10139000967359434FF47A73B1FBF3F12368491CF8
:1013A0001E6A26F03F06314319626168914210D8E7
:1013B0004900401EB0FBF1F2521CC2F30B02042A9A
:1013C00001D2042022E0B0FBF1F0401CC0F30B007E
:1013D0001CE0A268F2B301EBC10303EB0116431E4C
:1013E000B3FBF6F35B1C43F480431B0549D092B377
:1013F00001EBC10202EB0111401EB0FBF1F0401CF9
:10140000C0F30B0040F4804040F400402168CA69FA
:101410004CF6FF739A431043C861D4E907100143A7
:101420002068026822F0C00211430160D4E9030180
:1014300001432068826848F2FF339A431143816078
:10144000D4E9050108432168CA6822F0FF0210436D
:10145000C86001E00EE016E02068016841F001017B
:1014600001602564202084F83D00256384F83E5007
:10147000002070BD01EB4106431EB3FBF6F35B1C7D
:10148000B3E70120C2E701EB4101401EB0FBF1F0E0
:10149000401CC0F30B00B7E7A086010080841E004B
:1014A00000093D0040420F002DE9F84F1F469046CD
:1014B0008A460446DDF82890FFF72CFF054694F88D
:1014C0003D0020287FD11923012240492046009564
:1014D00000F0FCFF002876D194F83C00012872D07F
:1014E000012084F83C0020680168C90703D1016825
:1014F00041F0010101602068016821F40061016090
:10150000212084F83D00102084F83E000026266447
:10151000C4F824806785608D20852D48E0622B46C5
:101520004A465146204600F05DFF90B92068416967
:101530008069009036E02A464946204601F045F889
:1015400050B1206C042804D12068016841F4007176
:1015500001600120BDE8F88F606A216800780861A9
:10156000606A401C6062618D491E6185218D491E43
:1015700089B2218522685369DB435B070BD451B1E3
:1015800000781061606A401C6062608D401E60855A
:10159000208D401E20852A464946204600F070FFD7
:1015A0000028CED1208D0028C5D154F83D0B01680C
:1015B00041F400710160202004F81E09E677667787
:1015C0000020C7E7FFE70220C4E700000200100088
:1015D0000000FFFF10B586B0044614216846FEF7F0
:1015E00047FE14492068884221D11348016841F020
:1015F000020101600068694600F0020005904FF4A6
:10160000407000901220019001200290032003906E
:10161000042004900948FFF789FD0748103001684D
:1016200041F400110160006800F40010059006B05C
:1016300010BD000000540040303802400004024059
:1016400002488168027811448160704738000020A8
:101650000B4810B5016841F400710160016841F464
:1016600080610160016841F480710160032000F035
:101670006FF8002000F006F800F024F8002010BDFC
:10168000003C024070B50D4D04464FF47A71287845
:10169000B1FBF0F00A490968B1FBF0F000F02CFB57
:1016A00048B9102C07D200222146501E00F030F815
:1016B00000206C6070BD012070BD0000380000206B
:1016C000440000200A4808B5016841F480410160E7
:1016D000006800F4804000900548001F016841F058
:1016E00080510160006800F08050009008BD00004B
:1016F00044380240002809DB00F01F02012191401C
:101700004009800000F1E020C0F80011704700009F
:10171000F0B40E4B1B680C46C3F30223C3F107055C
:10172000042D00D90425191D072901D2002300E04A
:10173000DB1E012606FA05F1491E214099409E4014
:10174000761E16403143F0BC01F060BB0CED00E0AA
:10175000064900F0070208684FF6FF03184040EA08
:101760000220034A10430860704700000CED00E0BF
:101770000000FA052DE9F0470E46050065D0DFF8B8
:101780001481D8F80000F7B200F00F00B04207D281
:1017900088F80070D8F8000000F00F00B04254D173
:1017A00028683D4C810712D5400703D5206840F4D6
:1017B000E05020602878000703D5206840F460409E
:1017C00020602068A96820F0F00008432060287895
:1017D000C0072DD0304968680839012812D0022886
:1017E00013D0032811D00968890700292DDA216850
:1017F00021F0030101432160FFF78CFD814641F296
:10180000883A0EE009688903EFE709688901ECE787
:10181000FFF780FDA0EB0901514502D90320BDE887
:10182000F0872068696800F00C00B0EB810FEFD101
:10183000D8F80010404601F00F01B14207D90770F7
:10184000006800F00F00B04201D00120E7E72878DF
:10185000400705D52068E96820F4E050084320607F
:101860002878000706D52068296920F4604040EAFE
:10187000C100206000F028F82168084AC1F3031174
:10188000515CC8400649086006480068FFF7FAFE48
:101890000020C4E7003C02400838024046430008EC
:1018A000440000203C000020044805490068096805
:1018B000044AC1F38221515CC840704744000020B3
:1018C0000838024056430008224810B5006810F05E
:1018D0000C02214815D02149042A11D01D4C241F87
:1018E000082A0FD00C2A0CD12268236802F03F028C
:1018F0005B0221D52068C0F38810A0FB010120E025
:10190000084610BD2268236802F03F025B0205D53D
:101910002068C0F38810A0FB010104E02168C1F336
:101920008811A1FB00010023FEF76AFC2168C1F3C6
:101930000141491C49000AE02168C1F38811A1FB5B
:1019400000010023FEF75CFC2168C1F30271B0FBCB
:10195000F1F010BD083802400024F40040787D0109
:101960002DE9F84F04007DD0DFF878B32078ABF193
:101970000407C007A7F1040550D0DBF80010584653
:10198000C1F3810101290FD00168C1F3810102294E
:1019900002D13968490207D40068C0F381000328E6
:1019A00009D13868400206D52868800336D56068BA
:1019B0000028D8D032E06068B0F5803F10D0B0F594
:1019C000A02F286810D020F480302860286820F4E8
:1019D000802028606068A0B1FFF79CFC06460CE000
:1019E000286840F48030F4E740F480202860F7E76E
:1019F000FFF790FC801B642876D828688003F7D511
:101A00000CE0FFF787FC064605E000BFFFF782FC0D
:101A1000801B6428F0D828688003F7D42078DFF88A
:101A2000C89280074FF0000A44D5DBF800105846F2
:101A300011F00C0F0FD00168C1F38101022902D10E
:101A40003968490207D50068C0F3810003280AD12C
:101A50003868400207D42868800715D5E068012857
:101A600000D111E03AE1E068B0B10120C9F800000E
:101A7000FFF750FC064604E0FFF74CFC801B0228F1
:101A8000BAD828688007F7D52868216920F0F800BF
:101A900040EAC10028600DE0C9F800A0FFF73AFC59
:101AA000064604E0FFF736FC801B02281CD8286895
:101AB0008007F7D42078000727D5DFF828828B48E5
:101AC000616908F16C0881B101210160FFF722FC16
:101AD000064604E0FFF71EFC801B022804D8D8F855
:101AE00000008007F6D510E089E0C0F800A0FFF7FD
:101AF00011FC064605E000BFFFF70CFC801B022826
:101B00007DD8D8F800008007F6D42078400769D542
:101B100074484FF0000838300068C0000BD471489A
:101B20003830016841F08051016000684FF00108D1
:101B300000F0805000906E4E3068C00511D43068BF
:101B400040F480703060FFF7E5FB009006E000BFD6
:101B5000FFF7E0FB0099401A022850D83068C00512
:101B6000F6D5604EA068683601280FD00528306889
:101B700010D020F001003060306820F004003060A8
:101B8000A068B8B1FFF7C6FB00900FE0306840F0E6
:101B90000100F4E740F004003060F7E7FFF7BAFB1C
:101BA0000099411A41F28830814264D83068800738
:101BB000F4D50EE0FFF7AEFB009007E0FFF7AAFBBD
:101BC0000099411A41F28830814254D83068800728
:101BD000F4D4B8F1000F05D042483830016821F044
:101BE00080510160A069A8B3DBF80010C1F3810146
:101BF000022947D00228C9F860A005D000E03AE0E9
:101C0000FFF788FB044639E0FFF784FB064604E053
:101C1000FFF780FB801B02282DD828688001F7D4AD
:101C2000F4E907010843E168324A490802EB01413F
:101C3000A26841EA82110843217C40EA0160217DCB
:101C400040EA017038600120C9F86000FFF762FBCC
:101C5000044606E044E000BFFFF75CFB001B0228DF
:101C600009D828688001F7D53AE000BFFFF752FB9A
:101C7000001B022802D90320BDE8F88F28688001E4
:101C8000F4D42DE00128F7D03868E26900F480012F
:101C9000914223D1226A00F03F0191421ED147F6C2
:101CA000C071626A0140B1EB821F17D1A26A4FF086
:101CB000FF3300F4403103EB5202B1EB024F0DD180
:101CC00094F82C2000F07061B1EB026F06D194F80B
:101CD000301000F0E040B0EB017F01D00120CBE7F5
:101CE0000020C9E70838024000004742800E474202
:101CF000007000400000FFFF10B5401EB0F1807F73
:101D000001D3012010BD4FF0E02460610F21601766
:101D100001F07CF80020A06107202061002010BDA8
:101D200010B590F83C20012A22D0012280F83C20F6
:101D3000CA688C6822F4407222434C6822F48062A4
:101D400022430C6822F4006222430C6922F4805280
:101D500022434C6922F400522243C969002322F431
:101D600080420A4301684A6480F83C30002010BD7C
:101D7000022010BD70B590F83C20012A32D0012419
:101D800080F83C40022280F83D2003685A689D6834
:101D900022F070060A6832435A60134B02689A4276
:101DA00014D0B2F1804F11D0104B9A420ED0104B8C
:101DB0009A420BD00F4B9A4208D00F4B9A4205D053
:101DC0000E4B9A4202D00E4B9A4204D1496825F03C
:101DD00080031943916080F83D40002180F83C1059
:101DE000084670BD022070BD0000014000040040A4
:101DF00000080040000C0040000401400040014089
:101E00000018004010B5040003D094F83D0010B154
:101E100007E0012010BD002084F83C00204600F0BF
:101E20001FF8022084F83D00211D206800F058FEB4
:101E3000012084F8460084F83E0084F83F0084F8CE
:101E4000400084F8410084F8420084F8430084F89C
:101E5000440084F8450084F83D00002010BD0000D7
:101E600070B586B0044614216846FEF701FA3A4977
:101E700026680022394B0225012439488E4219D1A7
:101E8000364914310E6846F001060E60096801F00B
:101E900001010591196841F001011960196801F00B
:101EA0000101059181140091CDE90152CDE903248E
:101EB000694636E029491031B6F1804F1BD02948D8
:101EC000864232D1086840F002000860086800F0DD
:101ED00002000590186840F008001860186869460C
:101EE00000F00800059004200090CDE90152CDE9F2
:101EF00003251D4815E00E6846F001060E600968CE
:101F000001F001010591196841F00101196019689A
:101F10000094CDE9015201F00101CDE904410392A1
:101F20006946FFF703F906B070BD1048864207D135
:101F3000086840F004000860086800F0040009E048
:101F40000B488642EFD1086840F008000860086836
:101F500000F008000590E6E700000140303802403C
:101F60000000024000040040000C02400008004055
:101F7000000C004070B5044690F83C000025012894
:101F800017D0012684F83C60022084F83D002068C8
:101F9000826822F0770222F47F428260086850282B
:101FA00038D00DDC20284FD005DC90B3102811D19B
:101FB0004AE0022070BD302846D040280AD13BE0DC
:101FC00060282FD070280DD0B0F5805F03D0B0F519
:101FD000005F12D0012584F83D60002084F83C00A9
:101FE000284670BDCB68D1E90121206800F0E9FDE9
:101FF0002068816841F0770109E0CB68D1E90121CF
:10200000206800F0DEFD2068816841F48041816035
:10201000E1E719E0CA684968206800F0A7FE50218E
:10202000206806E0CA684968206800F0B0FE6021B8
:10203000206800F0D0FDCEE7CA684968206800F04B
:1020400095FE40212068F4E7226801461046F0E73B
:1020500070B586B0044614216846FEF709F9246875
:10206000324E00223249022301253248B4420FD1B8
:102070000C6844F001040C60096801F0010105914D
:1020800081150091CDE90132CDE90325694623E0B0
:10209000B4F1804F12D0284E4025B44220D10C68B4
:1020A00044F001040C6009680095CDE9013201F0AB
:1020B0000101CDE90431039269460DE00C6844F05A
:1020C00001040C6009680093CDE9013201F00101BF
:1020D000CDE904510392EFE7FFF728F806B070BD91
:1020E000164EB4420FD1086840F00200086008683C
:1020F0000095CDE9013200F00200CDE904306946D7
:1021000003920F48E8E70F4DAC42E7D10C6844F06A
:1021100001040C60096801F001010591042100919E
:10212000CDE901326946CDE90323D5E7000001403E
:102130003038024000000240000400400008004027
:1021400000040240000C004070B5044690F83C00CA
:1021500000260D4601280FD0012084F83C006AB10A
:10216000042A1DD0082A2FD00C2A3FD00126002097
:1021700084F83C00304670BD022070BD206800F03D
:1021800033FD2068816941F008018161206881691F
:1021900021F004018161206881692A69114311E0FD
:1021A000206800F051FD2068816941F4006181617F
:1021B0002068816921F480618161206881692A69D0
:1021C00041EA02218161D2E7206800F073FD2068B6
:1021D000C16941F00801C1612068C16921F00401B1
:1021E000C1612068C1692A69114311E0206800F0CB
:1021F00095FD2068C16941F40061C1612068C16931
:1022000021F48061C1612068C1692A6941EA022123
:10221000C161ACE710B5040003D094F83D0010B1E3
:1022200007E0012010BD002084F83C00204600F0AB
:102230001EF8022084F83D00211D206800F050FCAB
:10224000012084F8460084F83E0084F83F0084F8BA
:10225000400084F8410084F8420084F8430084F888
:10226000440084F8450084F83D00002010BD70470C
:1022700010B50446022249B104290ED0082913D012
:1022800094F84100012816D0012010BD94F83E00BA
:102290000128F9D184F83E200FE094F83F0001288E
:1022A000F2D184F83F2008E094F840000128EBD1F7
:1022B00084F8402001E084F841200122206800F0E9
:1022C00073FC16492068164A884201D0904203D117
:1022D000436C43F4004343642068884213D0B0F158
:1022E000804F10D00F4988420DD00F4988420AD044
:1022F0000E49884207D0904205D00D49884202D04D
:102300000C49884204D1816801F00701062903D0F5
:10231000016841F001010160002010BD0000014092
:10232000000401400004004000080040000C004090
:10233000004001400018004030B504460D460068DA
:10234000002200F031FC194B41F2111120688A1073
:10235000984202D0164B984209D1036A0B4206D12B
:10236000036A134203D1436C23F40043436420689F
:10237000036A0B4206D1016A114203D1016821F0C0
:102380000101016001203DB1042D08D0082D09D0C4
:1023900084F84100002030BD84F83E00FAE784F85C
:1023A0003F00F7E784F84000F4E700000000014038
:1023B00000040140FEE701684A69D24352050FD488
:1023C0006FF480624A61002140F8301F202242737E
:1023D0008173026942F004020261017301207047B7
:1023E00000207047F8B50446C06A1E460D461746E1
:1023F000082807D0012805D010F5803F02D0206BB7
:10240000122804D12068016841F4807101601346EC
:1024100000224FF001112046009600F057F840B11D
:1024200020680068C00502D54FF4007020640320C6
:10243000F8BD2069B0F5804F0ED00620216800EA73
:10244000D51040F0F000086133463A460B4920466B
:1024500000F070F878B902E005F0FE0000E0E8B2A4
:1024600021680861054933463A46891F204600F035
:1024700061F80028DCD00120F8BD00000800010050
:1024800070B516460D4604460DE02046FFF793FF53
:1024900008B1012070BD681C05D0FEF73BFF801B12
:1024A000A84207D835B120684069C0434007ECD442
:1024B000002070BD002044F8300F20216173A0730C
:1024C000216941F0200121612073E2E72DE9F04705
:1024D0001E4690460D460446C1F30747DDF820909E
:1024E00008E0701C06D0FEF715FFA0EB0900B04213
:1024F0000FD876B12068012F18D0806925EA000036
:102500000004000C14D000214145EAD00020BDE8B1
:10251000F087002044F8300F20216173A0732169F7
:1025200041F02001216120730120F0E74069E5E7D7
:102530000121E9E72DE9F0479A4691460E46044607
:1025400000254FF02008C1F3074725E020684069C7
:10255000C043400514D42068016841F40071016053
:1025600021686FF480604861256384F83D8084F8B9
:102570003E50206C40F00400206484F83C501FE082
:10258000B9F1FF3F08D0FEF7C5FEA0EB0A014945AF
:102590000CD8B9F1000F09D02068012F13D0806941
:1025A00026EA00000004000C0BD0CFE744F8305FAF
:1025B00084F80D80A573206940F020002061257308
:1025C0000120BDE8F0874069EAE770B516460D4680
:1025D00004460DE02046FFF7EEFE08B1012070BD75
:1025E000681C05D0FEF796FE801BA84207D835B1BF
:1025F00020684069C0430006ECD4002070BD002074
:1026000044F8300F20216173A073216941F020014B
:1026100021612073E2E700001FB5002116480091F8
:1026200001910291134A039102604FF48032C0E994
:1026300001210161017680F82010104AC0E90A21C9
:102640000124C461C16080F830104461FEF74EFC83
:1026500008B172B6FEE70520CDE90004042002901F
:1026600069460548FEF7D4FA002801D072B6FEE7A5
:102670001FBD0000002001404C0000200100000FA1
:1026800000B587B014216846FDF7F2FD1648002119
:10269000026842F001020260026802F00102059243
:1026A000026842F004020260026802F0040205922D
:1026B000026842F008020260026802F00802059215
:1026C000026842F002020260006800F00200059019
:1026D0004FF49070CDE90001012002906946034853
:1026E000FEF724FD07B000BD30380240000802406C
:1026F00070B596B000240F94109411941294139412
:102700001C2108A81494FDF7B3FD20216846FDF7AD
:10271000AFFD294827490125C0E90014C0E9024559
:1027200080210461C0E90541FFF76CFB08B172B676
:10273000FEE74FF40056B000CDE910040F960FA944
:102740001D481294FFF716FC08B172B6FEE71A484E
:10275000FFF760FD08B172B6FEE7139413A916489F
:102760001494FFF707FB08B172B6FEE760200890EB
:10277000CDE909540B940C940D94002208A90E483D
:102780000E94FFF7E1FC08B172B6FEE70094CDE9C4
:102790000446029401940394694607480794FFF79E
:1027A000BFFA08B172B6FEE70348FFF751FC16B056
:1027B00070BD000000000140E800002030B58DB081
:1027C00000240794089409940A940B941C216846E9
:1027D0000C94FDF74DFD1F484FF080410125C0E9E5
:1027E0000014C0E90245802104618161FFF70AFB02
:1027F00008B172B6FEE74FF40050CDE90704099422
:1028000007A914480A94FFF7B5FB08B172B6FEE7B2
:102810001048FFF7FFFC08B172B6FEE70B940BA956
:102820000C480C94FFF7A6FA08B172B6FEE76020D8
:102830000090CDE901540422694606480494FFF74C
:1028400083FC08B172B6FEE70248FFF701FC0DB049
:1028500030BD00003001002010B58EB00024079478
:10286000089409940A940B941C2168460C94FDF773
:10287000FFFC20481E49C0E9001440F2FF71C0E986
:102880000241802104618161FFF7BCFA08B172B690
:10289000FEE74FF40050CDE90704099407A9154855
:1028A0000A94FFF767FB08B172B6FEE71148FFF71D
:1028B000B1FC08B172B6FEE70B940BA90D480C945D
:1028C000FFF758FA08B172B6FEE7602000900220C8
:1028D000CDE901040022694606480494FFF734FC60
:1028E00008B172B6FEE70348FFF7B2FB0EB010BDA9
:1028F000000400407801002010B58EB00024079439
:10290000089409940A940B941C2168460C94FDF7D2
:10291000AFFC1F481D49C0E900144AF6C871C0E960
:102920000241802104618161FFF76CFA08B172B63F
:10293000FEE74FF48050079007A91548FFF71AFBF0
:1029400008B172B6FEE71248FFF764FC08B172B630
:10295000FEE70B940BA90E480C94FFF70BFA08B195
:1029600072B6FEE76020009043F2BC40CDE901045E
:102970000022694606480494FFF7E6FB08B172B6E8
:10298000FEE70348FFF764FB0EB010BD00080040EF
:10299000C001002010B58EB000240794089409945B
:1029A0000A940B941C2168460C94FDF761FC1F48A7
:1029B0001D49C0E9001442F20F71C0E902418021B3
:1029C00004618161FFF71EFA08B172B6FEE74FF4A9
:1029D0008050079007A91548FFF7CCFA08B172B6E6
:1029E000FEE71248FFF716FC08B172B6FEE70B943B
:1029F0000BA90E480C94FFF7BDF908B172B6FEE7BB
:102A00006020009041F28730CDE901040822694638
:102A100006480494FFF798FB08B172B6FEE7034836
:102A2000FFF716FB0EB010BD000C0040080200209E
:102A3000FEE7FEE770477047FEF702BE30B593B081
:102A400034216846FDF714FC14210DA8FDF710FC95
:102A50001D480025016841F080510160006800F0C8
:102A6000805012901948016821F4404141F480419E
:102A700001600068022400F440401290012003909D
:102A800010200490009406940820CDE907505A20A5
:102A9000CDE909040B9468460C94FEF761FF08B178
:102AA00072B6FEE70DA90F2081E831004FF4805087
:102AB000CDE9100502210DA8FEF75CFE002801D02B
:102AC00072B6FEE713B030BD4038024000700040DF
:102AD0000248016841F470010160704788ED00E030
:102AE000F0B50268254C264D264E274F274B4FF058
:102AF000804CA04209D0604507D0A84205D0B04222
:102B000003D0B84201D0984204D122F0700E4A6836
:102B100042EA0E02A0421BD0604519D0A84217D04D
:102B2000B04215D0B84213D0984211D0184DA842E7
:102B30000ED0184DA8420BD0174DA84208D0174D03
:102B4000A84205D0164DA84202D0164DA84203D186
:102B500022F44075CA682A434D6922F080022A4354
:102B600002608A68C2620A688262A04201D098420A
:102B700001D10969016301214161F0BD00000140FB
:102B80000004004000080040000C00400004014028
:102B9000004001400044014000480140001800404E
:102BA000001C00400020004010B501F01F0301216F
:102BB000046A99408C430462016A9A40114301629D
:102BC00010BD10B5846842EA032224F47F440A430E
:102BD0002243826010BD826822F070020A4342F0F4
:102BE0000701816070470000F0B5026A22F001021F
:102BF0000262036A42688469124E24F073050C680D
:102C00002C4323F002058B682B430D4DA84201D0C5
:102C1000B04205D123F00807CB683B4323F00403FF
:102C2000A84201D0B04205D14D6922F4407215434B
:102C30008A692A4342608461496841630362F0BD46
:102C40000000014000040140F0B5026A22F01002C9
:102C50000262026A436884690D6824F4E64444EA27
:102C600005248D6822F0200242EA05120F4D104E15
:102C7000A84201D0B04206D1CF6822F0800242EAD9
:102C8000071222F04002A84201D0B04207D14D699C
:102C900023F4406343EA85038D6943EA8503436077
:102CA0008461496881630262F0BD00000000014058
:102CB00000040140F0B5026A22F480720262026AE6
:102CC0004368C46922F4007224F073050C68124E44
:102CD0002C438D6842EA05220E4DA84201D0B04235
:102CE00006D1CF6822F4006242EA072222F4806211
:102CF000A84201D0B04207D14D6923F4405343EAC2
:102D000005138D6943EA05134360C4614968C163D3
:102D10000262F0BD000001400004014030B5026ACB
:102D200022F480520262046A4268C3690D6823F487
:102D3000E64343EA05238D6824F4005444EA05344D
:102D4000084DA84202D0084DA84204D14D6922F492
:102D5000804242EA85124260C361496801640462AC
:102D600030BD0000000001400004014010B5036ABE
:102D7000046A24F001040462846924F0F00444EA43
:102D8000021423F00A020A438461026210BD10B5E6
:102D9000036A23F0100303628369046A23F4704317
:102DA00043EA023224F0A00343EA01118261016286
:102DB00010BDFEE70FB4084B10B504A902AA039892
:102DC00000F0B4FF044602A9002001F059F82046A3
:102DD00010BC5DF814FB0000813E000803B40198AC
:102DE0004100009850EAC12018BF04204A0D18BFC6
:102DF00040F0010040F2FF72B2EB515F08BF40F0BB
:102E00000200012808BF052002B070470907090E1B
:102E1000002804DB00F1E02080F80014704700F087
:102E20000F0000F1E02080F8141D70470000000042
:102E30002DE9F04D2DED040B2DED0E8B96B0DDE957
:102E40002550279CDDF890A025F0004624F000488E
:102E5000BAF1000F14BF0121002101EB4502FC492A
:102E600053184A1093422AD3002814BF0123002389
:102E700003EB44030B44F7498B4220D358EA00018B
:102E80009FEDF59B76D0DFF8D8B35D4503D1BAF15D
:102E9000000F05D188E0BAF1000F08BF002100D073
:102EA000012101EB450111F5001F08D8002814BFCE
:102EB0000121002101EB440111F5001F0BD99DED0B
:102EC000261B9DED240B16B0BDEC0E8B04B0BDE8A7
:102ED000F04D00F0D9BE0027002DBCBFE149884568
:102EE00021DAE1498845A8BF02271CDAC3451ADC6C
:102EF000DE4901EB2851142908DDC1F1340220FA22
:102F000002F101FA02F282420DD108E058B9C1F192
:102F1000140228FA02F101FA02F2424503D101F04B
:102F20000101C1F1020756EA0A0124D1002C22DA7C
:102F3000002D18BF022F01D0012F0AD0022000F06F
:102F4000EFFE16B0BDEC0E8B04B0BDE8F04D00F006
:102F500083BE022000F0E4FE00F07EFE51EC100B78
:102F600081F0004141EC100B16B0BDEC0E8B04B0AB
:102F7000BDE8F08D18E09FEDBEAB9FEDBF8B002844
:102F800071D1B848804522D105F1804010F58010FC
:102F900008BFBAF1000F07D0B3450ADC002CA8BF68
:102FA0009DED260BE0DA0DE0B0EE490AF0EE690A7D
:102FB000DAE7002C06DA9DED260B51EC100B81F0C0
:102FC00000416FE0AE48784490ED000BCCE7D84567
:102FD0004DD1002C48DA2EB186423AD1BAF1000F19
:102FE00042D126E0BAF1000F13D0022000F098FE83
:102FF00000F066FE8DED020B9DED240B8DED000BB8
:1030000010EE900A039961F31E0003909DED020BF0
:10301000AAE78DED02AB9DED240B1AEE901A10EE8F
:10302000900A8DED000B61F31E0003909DED020BE5
:103030009AE78DED028B9DED240B18EE901A10EEA1
:10304000900A8DED000B61F31E0003909DED020BC5
:103050008AE709DA9DED240B51EC190B53EC102B88
:10306000FDF7B8F91EE020E09DED240B7CE78642D9
:103070001BDAB4F1804F0DD0A4F10050B0F1FF5035
:1030800013D1002D11DB9DED240B51EC100B01F041
:1030900023F907E09DED240B53EC102B51EC100BA2
:1030A00000F0C2BC41EC100B5EE79DED240B51EC2F
:1030B000100B00F0EAFEBAF1000FCDE90E0142D18B
:1030C0009FED710B46B3A6F1E040B0F17F600CD0EC
:1030D0005E4538D1002D00DAA7B3022F0CBF0120C6
:1030E0004FF0FF30FDF790FBDCE7002D01DD002CF9
:1030F0000DDA002D01DD002C1FDB002D16DA002C6F
:1031000014DB012F08BF9FED620B3FF42DAFB0EE33
:103110004A0AF0EE6A0A27E7022F18BF002D0CD0EA
:10312000012F0AD1002DFFF61FAF06E0002DB8BF1A
:10313000002C08DA012F3FF417AFB0EE480AF0EE8A
:10314000680A11E71BE0012000EBE57050EA070177
:1031500015D0791EB0EE498AF0EE698A084308BF9F
:103160009FED4D8B4E480025804570DD4D494E4802
:10317000884514DDB0420DDB002C19DB2FE0012067
:1031800000F0CEFD16B0BDEC0E8B04B0BDE8F04DE6
:1031900000F086BDB34502DC002C09DC1FE086424E
:1031A00002DA002C1BDA03E05E452BDD002C16DD75
:1031B000022000F0B5FD00F083FD8DED020B53EC15
:1031C0001A2B51EC180BFDF751FACDE900010399C8
:1031D000019861F31E0003909DED020BC4E60220EE
:1031E00000F09EFD00F07CFD10EE901A18EE900AA3
:1031F0008DED020B8DED008B61F31E0003909DEDB4
:10320000020BB1E69DED0E0B53EC192B51EC100B9C
:10321000FDF7DAF89FED260BCDE9080153EC102BF2
:103220009DED080B51EC100BFDF720FA9FED221BD2
:1032300053EC112BFDF7CBF89DED081B53EC112B34
:10324000FDF714FA9FED1E1B53EC112B3CE08CE0B4
:10325000FFFF1F00FFFF0F00000000000000F03F15
:103260000000F03F0000F07F0000404301FCFFFF42
:10327000000000000000F07F0000000000000000DF
:103280001E1400000000000000000000000000808C
:10329000000000000000F0FF000000000000F0BF90
:1032A0000000E0410000F043FFFFEF3F000000009E
:1032B000000000000000D03F555555555555D53FED
:1032C000000000000000E03FFDF781F89DED080BD5
:1032D00041EC1A0B53EC102B51EC100BFDF7C6F917
:1032E00053EC1A2BFDF7C2F941EC1A0B9FEDFE0BC4
:1032F00053EC102B9DED080B51EC100BFDF7B6F9BC
:1033000041EC1B0B9FEDFA0B51EC1A0B53EC102BFD
:10331000FDF7ACF941EC1A0B9FEDF70B53EC102BBA
:103320009DED080B51EC100BFDF7A0F953EC1A2B97
:10333000FDF74AF841EC1A0B51EC1B0B53EC1A2B1E
:10334000FCF7A1FF0690CDE906519DED060B53EC6D
:103350001B2B51EC100BFDF737F853EC1A2BFDF734
:1033600036F841EC100B00F0A1B90020B6F5801F33
:103370000EDA9FEDE30B53EC102B9DED0E0B51EC91
:10338000100BFDF773F9CDE90E016FF034000E4616
:1033900000EB2650A0F2FF37C6F31300DA4940F0E5
:1033A0007F6646F040568842D8BF002408DDD749E2
:1033B0008142C8BF012403DC0024A6F580167F1CCF
:1033C000D348784400EBC4000F9690ED00CB9DED00
:1033D0000E0B53EC1C2B51EC100BFCF7F5FF9DED85
:1033E0000E0B41EC1B0B53EC1C2B51EC100BFCF7A0
:1033F0004AFF41EC100B51EC190B53EC102BFCF76E
:10340000E9FF41EC1D0B51EC1B0B53EC1D2BFDF7A1
:103410002DF941EC1A0BBF488DED10AB7844109597
:1034200090ED000B4FF0005040EA660000EB844046
:103430008DED080B00F5002009909DED080B53EC75
:103440001C2B51EC100BFCF7BFFF9DED0E1B53EC3A
:10345000112BFCF7BCFF41EC100B53EC102B9DED36
:10346000100B51EC100BFDF701F99DED080B41EC31
:103470001C0B53EC102B9DED100B51EC100BFDF7BA
:10348000F5F853EC1B2BFCF7A2FF53EC1C2BFCF7BD
:103490009BFF53EC1D2BFDF7E9F841EC1C0B53ECA3
:1034A0001A2B51EC1A0BFDF7E1F841EC1B0B9A4873
:1034B0000621B0EE4B0AF0EE6B0A784400F050FBA8
:1034C000B0EE401AF0EE601AB0EE41DAF0EE61DADA
:1034D00053EC1B2B51EC1B0BFDF7C8F853EC1D2BC9
:1034E000FDF7C4F89DED100B41EC1B0B53EC1A2BB0
:1034F00051EC100BFCF7C7FE53EC1C2BFDF7B6F894
:1035000053EC1B2BFCF7BFFE9DED100B41EC1B0B8E
:1035100053EC102B51EC100BFDF7A8F841EC1D0BF0
:103520009FED7FEB53EC1E2BFCF7ADFE53EC1B2BFA
:10353000FCF7A9FE0890CDE908519DED080B53EC6E
:103540001E2B51EC100BFCF73FFF53EC1D2BFCF72F
:103550003BFF53EC1B2BFCF73AFF9DED080B41ECB6
:103560001D0B53EC102B9DED100B51EC100BFDF7C8
:103570007DF841EC1B0B53EC1A2B51EC1D0BFDF7A6
:1035800075F89DED080B41EC1A0B53EC102B51EC28
:103590001C0BFDF76BF853EC1A2BFCF774FE41EC97
:1035A0001A0B51EC1B0B53EC1A2BFCF76CFE0C9016
:1035B000CDE90C519DED0C0B53EC1B2B51EC100B7A
:1035C000FCF702FF53EC1A2BFCF701FF41EC1B0B3D
:1035D0009FED550B53EC102B9DED0C0B51EC100B8C
:1035E000FDF744F841EC1A0B9FED510B51EC1B0B0E
:1035F00053EC102BFDF73AF841EC1B0B9FED4E0BF3
:1036000053EC102B9DED0C0B51EC100BFDF72EF82D
:1036100053EC1B2BFCF737FE41EC100B4848784469
:1036200000EBC40090ED001B51EC100B53EC112B80
:10363000FCF729FE41EC1B0B3846FDF7E5F8CDE918
:10364000080153EC1B2B51EC1A0BFCF71CFE41EC50
:10365000100B3C48784400EBC40090ED00CB51ECDB
:10366000100B53EC1C2BFCF70EFE9DED081B53ECCE
:10367000112BFCF708FE0690CDE906519DED080BD5
:1036800053EC102B9DED060B51EC100BFCF79CFE40
:1036900053EC1C2BFCF798FE53EC1A2BFCF794FE12
:1036A00053EC1B2BFCF793FE41EC100B9DED261BFE
:1036B00053EC102B8DED001B00959DED260B51EC6E
:1036C000100BFCF7D3FF9DED000B41EC1A0B53ECF4
:1036D000102B9DED260B51EC100BFCF775FE9DEDAC
:1036E000061B53EC112B2FE0000000604715F73F3D
:1036F000FE822B654715F73F44DF5DF80BAE543E65
:1037000000000000000040438E9803007AB60B00D2
:103710009A0F0000C80F0000D20E00000000000049
:103720000000000000000840000000E009C7EE3F74
:10373000FD033ADC09C7EE3FF5015B14E02F3EBE06
:103740005E0D0000180D0000FCF790FF53EC1A2BE3
:10375000FCF799FD9DED060B41EC1A0B53EC102B79
:103760009DED000B51EC100BFCF780FFCDE90C0137
:103770009DED0C0B51EC1A0B53EC102BFCF783FD59
:10378000CDE902010C46AA498C422FDB611A08439D
:1037900018D19DED0C0B53EC102B9DED020B51EC51
:1037A000100BFCF711FE41EC1B0B9FEDA30B51EC32
:1037B0001A0B53EC102BFCF766FD53EC1B2BFDF79B
:1037C0004DF82DD2022000F0ABFA00F079FA10EE9D
:1037D000901A18EE900A8DED020B8DED008B61F3BF
:1037E0001E0003909DED020BFFF7BEBB944A24F030
:1037F0000041914214D39349214408437FF4EFAC34
:103800009DED0C0B53EC102B9DED020B51EC100BAE
:10381000FCF7DAFD53EC1A2BFDF720F87FF6DFAC4E
:1038200024F000408849894A002601EB2051824259
:103830002BDA481C4FF4801121FA00F02044844A0E
:10384000C0F30A517A44A1F2FF3192ED000B814A94
:103850008DED080BCA4020EA0202C0F3130040F4C9
:103860008010C1F1140120FA01F60992002CB8BFB2
:1038700076429DED080B53EC102B9DED0C0B51EC9B
:10388000100BFCF7A1FDCDE90C019DED0C0B51ECEB
:103890001A0B53EC102BFCF7F6FC9FED6F0B089006
:1038A000CDE9085153EC102B9DED080B51EC100B9A
:1038B000FCF7DCFE41EC1B0B9FED690B53EC102B6E
:1038C0009DED080B51EC100BFCF7D0FE9DED0C0BA1
:1038D00041EC1C0B53EC102B9DED080B51EC100B25
:1038E000FCF772FD53EC1A2BFCF771FD9FED5E1B8C
:1038F00053EC112BFCF7BAFE53EC1C2BFCF7C3FC6A
:1039000041EC1A0B51EC1B0B53EC1A2BFCF7BBFCD4
:10391000CDE902019DED020B53EC1B2B51EC100B7A
:10392000FCF752FD53EC1A2BFCF751FD9DED020BF9
:1039300041EC1A0B53EC102B51EC100BFCF796FEDC
:10394000CDE908014A489DED080B0521784400F0B7
:1039500007F99DED081B51EC100B53EC112BFCF7F4
:1039600085FE9DED021B53EC112BFCF730FDCDE9DC
:1039700006019DED020B53EC1A2B51EC100BFCF7DA
:1039800075FE53EC1A2BFCF77EFC9FED3B0B41ECD4
:103990001A0B53EC102B9DED060B51EC100BFCF7A2
:1039A00013FD9DED060B41EC1B0B53EC102B9DED15
:1039B000020B51EC100BFCF759FE53EC1B2BFCF7E0
:1039C00009FD53EC1A2BFCF7FFFC9DED021B53EC99
:1039D000112BFCF7F9FC53EC192BFCF7F8FCCDE9A3
:1039E000020101EB065001150029C8BF039015DC48
:1039F0009DED020B324651EC100BFCF7A9FEFFF7D0
:103A0000EDF9042808BF00F06BF932469DED020B7A
:103A100051EC100BFCF79CFECDE902019DED020B71
:103A200051EC180B53EC102BFCF720FEFFF73ABBC0
:103A30000000904000000000FE822B654715973C77
:103A400000CC904000346F3F01FCFFFF0000E03FDE
:103A5000A00B0000FFFF0F0000000000432EE63F18
:103A6000396CA80C615C20BEEF39FAFE422EE63FAD
:103A7000700A00000000000000000000000000408C
:103A800010B52DED020B2DED088B84B09DED0C0BC8
:103A900051EC100BFCF774FE41EC180B9DED0C0B78
:103AA00053EC182B51EC100BFCF78EFC41EC190B6E
:103AB0000D989FED290B10F0004F53EC102B51EC9B
:103AC000190B9FED21AB9FED22BB0ED0FCF7AEFE94
:103AD0000ED953EC1B2B51EC190BFCF7BFFE1CD27B
:103AE00014E000BF41EC180B17E0FCF79FFE06D274
:103AF00053EC1A2B51EC180BFCF766FCF2E753EC75
:103B00001B2B51EC190BFCF7A9FE06D853EC1A2B12
:103B100051EC180BFCF7B7FBE4E78DED028B9DED44
:103B20000C0B18EE901A10EE900A8DED000B61F35D
:103B30001E0003909DED020B04B0BDEC088B02B09B
:103B400010BD000000000000000000000000F03F79
:103B5000000000000000E03F000000000000E0BFA7
:103B600070B504462DED028B4D1E00EBC500B0EE86
:103B7000408AF0EE608A90ED000B35F0060017D019
:103B800053EC182B51EC100BFCF770FD41EC100BB3
:103B90006D1E04EBC50090ED001B51EC100B53ECB7
:103BA000112BFCF770FB41EC100B35F00600E7D150
:103BB000022D36D0042D1CD0062D1CBFBDEC028B6F
:103BC00070BD53EC182B51EC100BFCF74FFD94ED2E
:103BD0000A1B53EC112BFCF756FB53EC182BFCF78C
:103BE00045FD94ED081B53EC112BFCF74CFB41EC0D
:103BF000100B53EC182B51EC100BFCF737FD94ED28
:103C0000061B53EC112BFCF73EFB53EC182BFCF777
:103C10002DFD94ED040B53EC102BFCF734FB41EC21
:103C2000100B53EC182B51EC100BFCF71FFD94ED0F
:103C3000021B53EC112BFCF726FB53EC182BFCF763
:103C400015FD94ED001B53EC112BFCF71CFBBDEC98
:103C5000028B41EC100B70BD9FED070B10B553ECC0
:103C6000102B9FED070B51EC100BFCF7B3FB41EC55
:103C7000100B10BD0000000000000000000000005C
:103C8000000000000000F03F10B553EC112B51EC88
:103C9000100BFCF7F8FA41EC100B10BD000000000F
:103CA0009FED050B10B553EC102B51EC100BFCF7EE
:103CB00091FB41EC100B10BD000000000000000063
:103CC0009FED050B10B553EC102B51EC100BFCF7CE
:103CD000CDFC41EC100B10BD000000000000007096
:103CE0009FED050B10B553EC102B51EC100BFCF7AE
:103CF000BDFC41EC100B10BD0000000000000010E6
:103D000002E008C8121F08C1002AFAD170477047A4
:103D1000002001E001C1121F002AFBD17047000002
:103D20000149086070470000480000202DE9FF4F5E
:103D300089B09B460446002506E025280BD05A464C
:103D40000B999047641C6D1C20780028F5D10DB0AC
:103D50002846BDE8F08F0027B8460122474900E019
:103D6000074314F8013F203B02FA03F00842F7D161
:103D700020782E2819D114F8010F47F004072A28BB
:103D80000ED06FF02F022078A0F1300109290CD855
:103D900008EB880102EB410100EB0108641CF2E72B
:103DA0000A98641C50F8048B0A9020780028CED022
:103DB000642808D0692806D075281ED05A460B9969
:103DC00090476D1C58E00A994FF00A0901C90A9101
:103DD000002802DA40422D2102E0390504D52B21CA
:103DE0008DF82010012103E0F90704D02021F7E726
:103DF0008A4608AE0DE00021FAE70A994FF00A0959
:103E000001C90A91F7E74946FCF78CFB303106F807
:103E1000011D0028F7D1ADEB060000F1200978075D
:103E200001D44FF00108C84502DDA8EB090000E00D
:103E300000208046002706E008A85A46C05D0B997E
:103E400090476D1C7F1C5745F6DB04E030205A4636
:103E50000B9990476D1CB8F10001A8F10108F5DC41
:103E600005E016F8010B5A460B9990476D1CB9F105
:103E70000001A9F10109F4DC641C65E709280100CF
:103E80000A68531C0B601070704782B0CDE90001C6
:103E900021F0004001909DED000B02B051EC100BA1
:103EA000704700002DED028B82B0FDF7D1FBFEF7CD
:103EB000C5FDFEF7E5FBFEF7AFFBFEF719FCFEF7CD
:103EC0007DFCFEF7C9FCFEF717FDFEF763FDE84831
:103ED000E64900250160E749C0E901154FF480413A
:103EE000C0E9035145618561C5610562FDF718FAB6
:103EF00008B172B6FEE70220DD49009010234E2281
:103F000001F5DE70FCF7CBFDDB48FCF7BEFD0022BF
:103F10001146D948FCF714FED8A1D748FCF735FE66
:103F200001220021D448FCF70BFED6A1D248FCF7B1
:103F30002CFECF4800215430FEF79AF9CC480421DA
:103F40009C30FEF795F9CC480021D838FEF790F95F
:103F5000C7484838FDF72EF8DFF814A3DFF82C9394
:103F60000AF1540ACA4ECB4C4FF001080AF1480B33
:103F70000AF59077A079142877D1A079FCF799FAFF
:103F800041EC180BA069FCF794FA53EC182BFCF7E2
:103F900021FA41EC100B84ED0C0B9FEDBF1B53EC91
:103FA000112BFCF717FA41EC100B84ED080B9FED79
:103FB000BC1B53EC112BFCF766F941EC110B9FED88
:103FC000BA0BFEF735FF84ED0A0B51EC100BFCF732
:103FD0007DFAE060484502D3C4F80C9003E0CA289B
:103FE00001D8CA20E0603968E068C862F8603A68C1
:103FF0004108D163E178012903D06079012835D0E7
:104000003EE000EE100AF8EE400A9FEDA91A81EE9C
:10401000200AF6EE000A20EE200ADFEDA60A20EEC6
:10402000200ADFEDA50A20EE200A84ED050A10EE35
:10403000100AFCF764FA41EC100BFFF721FD51EC7C
:10404000100BFCF743FA024620618B489BA10C3011
:10405000FEF7B0FE012206218748FCF771FD864974
:1040600085480C31FCF791FD0AE027E0012206218A
:104070008148FCF765FD93A17F48FCF786FD6571DB
:10408000A078012801D050B116E02079012813D181
:10409000002206217848FCF753FD8DA108E0207925
:1040A000012809D1002206217348FCF749FD89A1A6
:1040B0007148FCF76AFD2571A571A5614FF4807107
:1040C0003046FDF721F90128207802D0012810D0D0
:1040D0001DE0E0B9684884F8038008214838FEF7FD
:1040E000C7F8654800219038FEF7C2F884F80080D0
:1040F0000DE06148E57008214838FEF71DF95E487B
:1041000000219038FEF718F9257084F805802021E9
:104110003046FDF7F9F80128607802D0012852D026
:104120009CE000284ED1544884F802800821483889
:10413000FEF702F94E4800215430FEF7FDF84C48D6
:1041400004219C30FEF7F8F84B480021D838FEF7E0
:10415000F3F8DAF80000826863891A438260DBF8BA
:1041600000008368B4F808C003EA0C038360DAF83F
:104170000010C1F82480DBF80010C1F824803E490B
:1041800040F2FF70D83909684862386845620A20F1
:10419000FCF7BAFF364800215430FEF769F834487E
:1041A00004219C30FEF764F833480021D838FEF72C
:1041B0005FF8314808214838FEF75AF884F8018042
:1041C00084F804804AE02C48A57008214838FEF79E
:1041D000B3F8274800215430FEF7AEF824480421F4
:1041E0009C30FEF7A9F824480021D838FEF7A4F83F
:1041F000DAF800008168228911408160DBF8001044
:104200008A6863891A438A60DAF80020C2F8248039
:10421000DBF80000C0F82480174940F2FF70D8395D
:1042200009684862386845620A20FCF76DFF10484B
:1042300000215430FEF71CF80D4804219C30FEF795
:1042400017F80D480021D838FEF712F80A4808215F
:104250004838FEF70DF8657084F804800520FCF7F7
:1042600053FF03484838FCF7A5FE83E6005400409E
:1042700094000020A0860100500200204449523AD8
:104280000000000052504D3A00000000AF3B2800F3
:1042900000080240000000200000000000A872405A
:1042A00085EB51B81E851E40000000000000004054
:1042B00050A9AB4C0000803A0000704225642020D9
:1042C000202020004F464620202020200000000013
:1042D000435720004343570000B52DED048B83B0B6
:1042E00041EC190BFCF7E4FA41EC180B18EE100A3C
:1042F00018EE901A8DED008B002818BF012008439E
:1043000020F00040C0F17F6000F1E040C00F14D009
:1043100019EE101A19EE900A8DED009B002918BFB6
:104320000121084320F00040C0F17F6000F1E0402F
:10433000C00F04BF0120FFF7F3FC51EC180B03B0D2
:10434000BDEC048B00BD0000000000000000010275
:10435000030406070809000000000102030400002E
:10436000000000000000F03F000000000000F83FE7
:1043700000000000000000000000004003B8E23F21
:10438000000000000000000006D0CF43EBFD4C3ED3
:10439000033333333333E33FFFAB6FDBB66DDB3FC8
:1043A0004D268F515555D53F01411DA96074D13F10
:1043B00065DBC9934A86CD3FEF4E454A287ECA3F0A
:1043C0003E5555555555C53F93BDBE166CC166BF8C
:1043D0002CDE25AF6A56113FF16BD2C541BDBBBE85
:1043E000D0A4BE726937663E0000000000000000E5
:1043F00010440008000000204C000000003D0008B0
:104400005C4400084C0000201C060000103D000821
:104410000001010001010000FF7F0080000000009A
:10442000000000000000000000000000000000008C
:10443000000000000000000000000000000000007C
:10444000000000000000000001000000100000005B
:0C445000000000000024F4000000000048
:04000005080001C529
:00000001FF
